{
  "contractName": "CallDaiToken",
  "abi": [
    {
      "inputs": [
        {
          "internalType": "address",
          "name": "daiAddress",
          "type": "address"
        }
      ],
      "stateMutability": "nonpayable",
      "type": "constructor"
    },
    {
      "inputs": [
        {
          "internalType": "address",
          "name": "recipient",
          "type": "address"
        },
        {
          "internalType": "uint256",
          "name": "amount",
          "type": "uint256"
        }
      ],
      "name": "moveDaiToken",
      "outputs": [],
      "stateMutability": "nonpayable",
      "type": "function"
    }
  ],
  "bytecode": "0x608060405234801561001057600080fd5b506040516102193803806102198339818101604052602081101561003357600080fd5b8101908080519060200190929190505050806000806101000a81548173ffffffffffffffffffffffffffffffffffffffff021916908373ffffffffffffffffffffffffffffffffffffffff16021790555050610185806100946000396000f3fe608060405234801561001057600080fd5b506004361061002b5760003560e01c80638c249bf414610030575b600080fd5b61007c6004803603604081101561004657600080fd5b81019080803573ffffffffffffffffffffffffffffffffffffffff1690602001909291908035906020019092919050505061007e565b005b60008054906101000a900473ffffffffffffffffffffffffffffffffffffffff1673ffffffffffffffffffffffffffffffffffffffff1663a9059cbb83836040518363ffffffff1660e01b8152600401808373ffffffffffffffffffffffffffffffffffffffff16815260200182815260200192505050602060405180830381600087803b15801561010f57600080fd5b505af1158015610123573d6000803e3d6000fd5b505050506040513d602081101561013957600080fd5b810190808051906020019092919050505050505056fea264697066735822122067623a9a9d746e74eb7a090fc3e92c2205dff188aa10c586b0b7e4940efc426664736f6c634300060c0033",
  "immutableReferences": {},
  "source": "pragma solidity ^0.6.0;\r\n\r\nimport \"@openzeppelin/contracts/token/ERC20/IERC20.sol\";\r\n\r\ncontract CallDaiToken {\r\n    IERC20 dai;\r\n\r\n    constructor(address daiAddress) public {\r\n        dai = IERC20(daiAddress);\r\n    }\r\n\r\n    function moveDaiToken(address recipient, uint amount) external {\r\n        dai.transfer(recipient, amount);\r\n    }\r\n}",
  "sourcePath": "C:\\Users\\vicku\\Documents\\GitHub\\interact_dai\\contracts\\CallDaiToken.sol",
  "compiler": {
    "name": "solc",
    "version": "0.6.12+commit.27d51765.Emscripten.clang"
  },
  "schemaVersion": "3.2.0",
  "updatedAt": "2020-09-25T06:54:04.624Z",
  "networkType": "ethereum",
  "devdoc": {
    "kind": "dev",
    "methods": {},
    "version": 1
  },
  "userdoc": {
    "kind": "user",
    "methods": {},
    "version": 1
  }
}